:020000041000EA
:1000000000B5324B212058609868022188439860DF
:10001000D860186158612E4B002199600221596106
:100020000121F02299502B49196001219960352056
:1000300000F044F80222904214D00621196600F024
:1000400034F8196E01211966002018661A6600F04E
:100050002CF8196E196E196E052000F02FF8012189
:100060000842F9D1002199601B49196000215960AB
:100070001A491B48016001219960EB211966A021F2
:10008000196600F012F800219960164914480160C1
:100090000121996001BC002800D000471248134993
:1000A000086003C880F30888084703B5996A0420EC
:1000B0000142FBD001200142F8D103BD02B5186610
:1000C0001866FFF7F2FF186E186E02BD00000240BE
:1000D000000000180000070000035F00212200005C
:1000E000F4000018222000A00001001008ED00E03C
:1000F00000000000000000000000000074B24E7A12
:1001000000200420F7010010CB010010CD010010E9
:10011000C9010010C9010010C9010010C901001077
:10012000C9010010C9010010C9010010CF01001061
:10013000C9010010C9010010D1010010D301001045
:10014000C1010010C1010010C1010010C101001067
:10015000C1010010C1010010C1010010C101001057
:10016000C1010010C1010010C1010010C101001047
:10017000C1010010C1010010C1010010C101001037
:10018000C1010010C1010010C1010010C101001027
:10019000C1010010C1010010C1010010C101001017
:1001A000C1010010C1010010C1010010C101001007
:1001B000C1010010C1010010C1010010C1010010F7
:1001C000EFF30580103800BE00BE00BE00BE00BECA
:1001D00000BE00BEF2EB8871FCA5001018A600104E
:1001E0003802001090A31AE700201E49086006C8D4
:1001F00081F3088810471C480068002801D00020BF
:10020000F3E70DA40ECC002902D000F012F8F9E7B4
:100210001649174A002000E001C19142FCD115495E
:100220008847154988471549884700BEFDE701C939
:1002300001C29A42FBD3704718A60010C0000020EC
:1002400050110020A8B60010000004200000042077
:10025000A8B60010001004200010042000000000C8
:100260007047000008ED00E0000000D050110020B1
:10027000943D0020AD6100109D090010A5610010A3
:10028000012230B51500174BA0241B6816489D406D
:10029000E405215829420CD0A44625509B0113485F
:1002A000634458601248006898601248036813431A
:1002B00003600122104B1B689A40114210D0A0200D
:1002C000C005844608499B01425002210B4A634401
:1002D0005A60074A12689A60064A13680B43136013
:1002E00030BDC046B00E00200C040000581B00209A
:1002F000A80E0020003D0020AC0E0020581E00205B
:10030000F0B500258BB006210E2002F085FC0621F9
:100310000F2002F081FC0621102002F07DFC00225B
:1003200001210E2002F092FC364C002201210F2008
:1003300002F08CFC00220121102002F087FC032334
:100340000E2200212000009502F0DCFD8022F8231F
:1003500052025B0202920393C0232B4F1B033E68A1
:1003600002A9102206A80493059504F063FB33004C
:100370000C33F2011B03134306A9102202A80793B2
:1003800004F058FB9022E0231203DB020492059351
:100390000021320002AB200002F00EFEA022D205A6
:1003A00094461A4E1A4A33680B209B0163445A60E4
:1003B000184A11689960184B18491B689B016344DF
:1003C0005960126801219A601022154B1A603B682F
:1003D00001270F321340B932A3502368BB433B437C
:1003E0002360104B1D6002F049FA39003368A022E7
:1003F00099408623D205DB00D1500B4B1F700BB008
:10040000F0BDC0460000205070350020B00E002026
:10041000581B0020A80E0020AC0E0020581E002003
:1004200000202050003D00208C3D0020002270B5AF
:10043000204B214C82B01A702270002824D01F4E0D
:100440003378002B22D0012323701D4B1D4D1B68D8
:100450006D7A1D4A6DB228000193009201F05CF99B
:100460000821684601F02EFA280001F09BF9174B8D
:100470001B78002B08D12378002B05D0144B1B7858
:10048000002B01D0FFF73CFF02B070BD09200D4DDD
:100490000021285601F0FEF928686968AA6801F071
:1004A00041F830700028EFD001232370044B1B6803
:1004B000CEE7C046933D00208A3D0020913D0020BC
:1004C000A40E0020C8A00010D50102048C3D00201D
:1004D000853D002070B5284C2378002B40D1274E55
:1004E000274D33682A68134331D400210B2002F0D2
:1004F000C5F901233268A02093402249C00543502A
:10050000214B80219C4692016244490413680B42AE
:10051000FCD1012329681B4A8B4083501A4B80224F
:100520009C468901614452040B6818001040134234
:10053000FAD10121154A13688B4313608022144BB2
:1005400012061A601A60134B1860134B1870134D83
:100550002B78002B06D10022114B1A700123237037
:10056000012070BD09200F4B185601F01BF901F056
:100570003DF800232B70EEE7933D0020B00E0020E5
:10058000AC0E0020440400000C000050000020507D
:10059000D0102050003D00208C3D0020913D0020D7
:1005A0008A3D0020C8A0001010B5002904D10A4BD4
:1005B00019700A4B197010BD074C2378002BFAD123
:1005C0000B220749002008F0D7F8002008F0E0F8D7
:1005D00001232370EFE7C046903D00208F3D0020AF
:1005E000609A00107047C046F0B5DE4657464E464A
:1005F0004546E0B58B7885B0022B54D8002B41D10D
:100600007F4A804C804D137023682A68134331D48D
:1006100000210B2002F032F901232268A020934030
:100620007A49C00543507A4B80219C46920162442E
:10063000490413680B42FCD101232968734A8B409B
:100640008350734B80229C468901614452040B689D
:10065000180010401342FAD101216E4A13688B43EF
:10066000136080226C4B12061A601A606B4B186084
:100670006B4B1870012005B0F0BCBB46B246A946D2
:10068000A046F0BD5E4E674A33709B00D15A9C581D
:10069000654B89461C60654B9C4206D0644B9C426E
:1006A00003D0002333700020E5E7624F3B78002B36
:1006B000F7D05B4B98461B789B465F4B9A461B686E
:1006C0009C4200D196E05B46002B46D04D4B4E4DF0
:1006D00001932A681B6813433FD400210B2002F0CA
:1006E000CDF8019BA0201A68012393404749C0051B
:1006F0004350474B80219C46920162444904136851
:100700000B42FCD101232968404A8B408350404B67
:1007100080229C468901614452040B6818001040F5
:100720001342FAD101213B4A13688B4313608022A4
:10073000394B12061A601A60384B1860434618701D
:100740003E4B1B78002B0CD13B78002BA9D0337883
:10075000002BA6D0FFF7D4FDA3E7384B1B78002B66
:100760009FD04A46364B0925029302AB9A8002AAD3
:10077000230C93710023D371324B5D57280000F096
:10078000CBFF082102A801F09DF8280001F00AF82B
:1007900053461C602C4B5A469C466444631E9C4145
:1007A0005F2364429C434346284DC0341B782C6031
:1007B000002A14D143461B78002B07D13B78002B2D
:1007C00004D03378002B01D0FFF79AFD2A68204926
:1007D0005300D21892B2002007F06EFA4AE7002BBD
:1007E000F4D13B78002BF1D03378002BE9D0FFF720
:1007F00087FDDFE75B46154D002BE5D0E6E7C046F9
:10080000853D0020B00E0020AC0E00204404000006
:100810000C00005000002050D0102050003D00205F
:100820008C3D00209C9F0010A00E002080BB00008B
:10083000007701008A3D0020A40E0020913D002099
:10084000D5010204C8A000100089FEFFA80E0020F8
:10085000549D001070B51D4D1D4C2B68226813432C
:1008600031D400210B2002F009F801232A68A020CE
:1008700093401849C0054350174B80219C46920174
:100880006244490413680B42FCD101232168114AD8
:100890008B408350104B80229C4689016144520456
:1008A0000B68180010401342FAD101210B4A13685B
:1008B0008B43136080220A4B12061A601A60094BA0
:1008C0001860094B1870012070BDC046B00E0020A2
:1008D000AC0E0020440400000C000050000020502A
:1008E000D0102050003D00208C3D0020CB78012B03
:1008F00008D1537891781B021278090402480B43FF
:100900001343036001207047A00E002010B5CB7880
:10091000040082B00020012B01D002B010BD684657
:10092000054B1A885B888280837101AA032320000B
:1009300007F02AFEF1E7C046A00E0020CB788878A9
:100940001B0218431B0A012B01D001207047C0B2C3
:100950000228FAD8014B12781A54F6E758210020E1
:1009600010B5CB788A781B0204001A43002082B0AD
:100970001B0A012B0AD1D2B20023022A08D96A46E7
:10098000200007321370012307F0FEFD02B010BDF6
:10099000014B9B5CF3E7C04658210020F0B5DE46D2
:1009A00057464E464546E0B5BBB008F0E5FE21ACE3
:1009B0000D2002F073FF2200D74822AB20A902F0DD
:1009C00001FE002803D1D548D34901F02BFA229A21
:1009D0002199209802F01AFDD149D24802F0F8F985
:1009E000D14BD24F1860012002F0DAFFD04D2860C1
:1009F0000120129502F0D4FF2E68CE4BCE4A18602B
:100A00001393F3029C466146C302CC4D1140194337
:100A100029430291A0219046C94AC905914612680E
:100A20008B469246C749B2015A44176006915160FD
:100A30005146916002991161424613406246134348
:100A40001D434B46C0491A6883015B441F605960CF
:100A50009A601D610123059119008340B140BB4A92
:100A60000B2011601360BA4901F01AFFB94B1D0049
:100A70000E93302300932B000FCB00F0BFFB2B0015
:100A80000FCB00F0FDFB2B000FCB00F0EBFBB24BCC
:100A9000B2491A0007930023B148137005F0DEFC39
:100AA00005F00AFEAF4BB04F9B46B04BB8460993DA
:100AB000AF4BB04D0B93B04BB04E0F93B04B109368
:100AC000B04B1193B04B0D93B04B0A93B04B1593B1
:100AD000B04B1693B04B9A465746DA46CB46AF4BCF
:100AE0001793AF4B1993AF4B1C93AF4B1D93AF4B69
:100AF0000893AF4B0C93AF4B1A93AF4B1B93AF4B79
:100B00001E93AF4B1F93AF4B1493AF4B0493AF4B5C
:100B1000994601200021404206F048FC002007F0E1
:100B2000E9FD002800D17CE0002007F0F9FD002855
:100B300018D001222100002007F012FE2378032B99
:100B40002AD0042B2BD00D2BEED02A780A2B31D0B3
:100B50004E2AE9D8511C00202970B35407F0E0FD5B
:100B60000028E6D13B78002BD3D0002007F09AF87C
:100B70000028CED0EFF3108172B643461A68002ADF
:100B800051D181F31088C4E715220020099907F09C
:100B9000F3FD002007F0FCFD00232B70C4E70023C9
:100BA0000B22514600202B7007F0E6FD002007F0D5
:100BB000EFFDB9E70023B354002AEDD03368844A2F
:100BC0009342E1D04B4500D182E0824B32689A4299
:100BD00000D192E0804B32689A4200D102E17E4B14
:100BE00032689A4200D116E17C4B32689A4200D1B9
:100BF00030E17B4B32689A4200D19DE1784B3268FC
:100C00009A4200D1FBE1764B32689A4200D142E22F
:100C100005221499002007F0AFFD002007F0B8FD71
:100C2000BAE728709EE70123134042461268D81E97
:100C300002404046026081F31088059A0292002B20
:100C400001D0069B02935B461B680020994607F083
:100C500043F8002800D15AE701898AB203924289F9
:100C6000808893B2914242DB039AD31A9BB200224E
:100C7000984201D9C01A82B24B4649465B005918C6
:100C80008A4200D243E74A46002A1AD048468000EA
:100C9000844648460299029028008C44654699464D
:100CA0008446049A01C94000030A1370030C000E25
:100CB0005370907003328D42F4D1029A4B466546D0
:100CC00091464B4404999AB2002006F0F5FF1EE7C6
:100CD0003379002B00D078E713220B99002007F01E
:100CE0004BFD002007F054FD00232B701CE7420051
:100CF000D21A039B9B189BB2B9E73379002B00D023
:100D000068E70E220F99002007F036FD002007F05B
:100D10003FFD00232B7007E790D00300D49A00100A
:100D2000A89F0010000020507035002020002050A7
:100D3000B00E0020AC0E0020FD0700FF29000200CD
:100D4000A80E0020581B0020581E0020042400502C
:100D500081020010C8A000108A3D00202D04001060
:100D6000D5040010609A0010003D00200C9B00107C
:100D70002C9B00108F3D0020489B0010543A00200F
:100D800004380020609B0010593A0020913D00205B
:100D90006C9B0010A40E00208C3D0020853D00209F
:100DA000A00E0020909B0010A09B0010933D0020FF
:100DB0009C9A00106C9A0010809A0010AC9A001057
:100DC000C09A0010E09B0010AC3A00205854414CEF
:100DD000564552004D4F44454652455152415445A7
:100DE0004446552CB3882C2B00D0F8E6109B1B688A
:100DF000119A602122A805F0A5F922A808F07CFD2F
:100E000022A90200002007F0B7FC002007F0C0FC78
:100E100000232B7088E633792C2B00D0E4E60A22DD
:100E200000210D9808F05CFD079B1B78002B08D073
:100E3000B94A431E934204D80A9B1B78002B00D06A
:100E400051E11A221599002007F096FC002007F0C6
:100E50009FFCA1E633792C2B00D0CAE60A220021A0
:100E60000D9808F03DFDAD4B029098420BD0AC4B75
:100E7000984208D018221D99002007F07DFC002020
:100E800007F086FC88E6079B1B78002BF2D0169BA8
:100E9000029A1B689A4200D193E13B780393002B9E
:100EA00000D157E1129B139A1B681268134300D5B7
:100EB00050E100210B2001F0E1FC0121129BA02256
:100EC0001B6898489940D2051150974980208C465C
:100ED0009B016344400419680142FCD10121139B2A
:100EE00090481B68994011508F4A802194469B017D
:100EF000634449041A68100008400A42FAD10121EB
:100F00008A4A13688B4313608022894B12061A6049
:100F10001A60434618600A9B38701B78002B00D07B
:100F20001DE1079B1B78002BA4D0179B1B78002B7F
:100F3000A0D0FFF7E5F99DE77E4B72689A4200D09A
:100F40005CE67D4BB2689A4200D057E6089B197860
:100F500000294BD1129B139A1B681268134331D49A
:100F60000B2001F08BFC129BA0201A6801239340F8
:100F70006C49C00543506C4B80219C4692016244F1
:100F8000490413680B42FCD1139B664A196801237C
:100F90008B408350644B80229C46890161445204FB
:100FA0000B68180010401342FAD101215F4A136800
:100FB0008B43136080225E4B12061A601A60434610
:100FC000387018600A9B1B78002B09D009200E99F5
:100FD000085600F0E7FB00F009FB00230A9A1370A3
:100FE0000023079A1370089A013313700F220C998B
:100FF000002007F0C1FB002007F0CAFBCCE54F4BF7
:1010000072689A4200D0FEE54D4B32899A4200D078
:10101000F9E5B37A002B00D0F5E5089A1278002A9A
:1010200036D0089A13700A9B197800290DD109202F
:101030000E9B185600F02EFC0E9B07CB00F072FAA8
:101040000A9B1870002800D1CEE00123079A0A9964
:101050001370169B0A781B68002A00D1B8E023930E
:101060000E9B384A5B7A22925BB21800029300F022
:1010700053FB082122A800F025FC029800F092FB07
:101080003B78002B04D1079A1378002B00D0A3E003
:101090001A9B02931BE02C4B72689A4200D0B7E572
:1010A0002A4B32899A4200D0B2E5B37A002B00D0A5
:1010B000AEE5089B0C9A1B780292002B07D1079B88
:1010C0001F9A1B780292002B01D01E9B029302985C
:1010D00008F012FC02990200002007F04DFB0020EE
:1010E00007F056FB58E51A4B029022930E9B239073
:1010F0005B7A5BB21800039300F00EFB22AA082172
:10110000100000F0DFFB039800F04CFB109B0299ED
:1011100019600B006CE6C0467FC3C90180BB0000AC
:1011200000770100440400000C0000500000205033
:10113000D0102050505245504152450043414E433B
:10114000454C0000D501020453544154555300004E
:10115000D50101040A9B1B78002B00D18AE6254BA0
:10116000029922931EAB99821EAA0B0C9375002341
:10117000D3750E9B5B7A5BB21800189300F0CCFA23
:1011800022AA1000082100F09DFB189800F00AFB2D
:10119000169B0299184A19606023914216D05A464C
:1011A0001360039B002B0CD03B78002B09D1079BCD
:1011B0001B78002B05D0179B1B78002B01D0FFF765
:1011C0009FF8199A029B13601C9A12E6DB18E6E757
:1011D0003B78002B00D05BE7179B1B78002B00D1DE
:1011E00056E7FFF78DF853E7079B18701B9B029398
:1011F0006DE7C046D50102040077010070B584B0E8
:101200001A0A039308AB197856B2120622D430207A
:1012100002F00AFD03F090FB051C03F0AFFBEC218C
:1012200004008905281C03F063FB051C200003F063
:101230007DFB011C281C03F058FB8721C90503F026
:101240006EFB03F09BFBC3B22200072130001B02A0
:1012500002F0B2F86B460E20185600F09BFB0020FF
:1012600004B070BD10B51C0C64B284B0200000F056
:1012700091FB200000F0A0FD002004B010BDC0468E
:1012800010B51C0C64B284B0200000F083FB200079
:1012900000F08AFD002004B010BDC046F0B5CE4677
:1012A000474680B587B06C461727E36000236F443C
:1012B0003B702D4B009099461B786160A260002B1B
:1012C00014D12A4D22002B0043CA43C312681A606E
:1012D0002B00220043CA43C3D0231B061A6A0E23E5
:1012E0000121EB56884699400A4205D1002007B0FB
:1012F000C0BCB946B046F0BD043400980ECCFFF730
:10130000B1FF0028F2DB062207200121AA56285649
:10131000174B494200F05CFB0028E7DB0920285608
:1013200000F038FB0920285600F046FD002102207D
:1013300001F04EFA0E20285600F036FD00210D482F
:1013400001F046FA0920285600F02EFD0121380050
:1013500000F0B2FC0920285600F02EFD43464A4614
:1013600001201370C3E7C046893D0020603500208E
:1013700040420F001405000010B500F09DFC10BDA8
:1013800070B582B007220021684603F04DFB1A4E6B
:101390003078002801D102B070BD0920174D0D240E
:1013A000285600F001FD0021012001F055F9092027
:1013B000285600F0F1FC0920285600F0FDFA012122
:1013C000684600F079FC0C20285600F0FDFC00284F
:1013D00002D1013C002CF2D10721684600F06CFCE0
:1013E00000F086FA00230C203370285600F0ECFC45
:1013F000431E9841C0B2CEE7893D002060350020F1
:1014000070B50124A02221000D4B0E4DD205D258FB
:101410002B6899400B00114210D00B4A1268002A29
:1014200005D00A4B186890472B689C402300012187
:10143000074A1170A021024AC9058B5070BDC046F1
:101440001C040000540F0020501B0020541B0020DF
:101450005C0F0020F0B5C646294D00B52C78002C55
:1014600003D120BF2C78002CFBD0EFF3108472B690
:10147000244E3260244A136000232B7084F31088BA
:10148000224B234A1C681568224AE302954232D057
:1014900088268022360312031F4F08353B40134332
:1014A000112213439846A023DB059C464346A20124
:1014B00062441060556091601361184B01201B68F5
:1014C0009C46DB023B403343A0266246F605B0460D
:1014D000920142441560124D0343556091601361BF
:1014E000624603009040A34086220343D200B350DB
:1014F00080BCB846F0BD9826902236031203CBE795
:101500005C0F0020501B0020541B0020580F0020AF
:10151000203D002000000440FD7F00FF540F00200C
:1015200020230020F0B52A4D85B00190287801AB2A
:1015300002910392002848D11A7959790A4352B28C
:10154000002A40DB06229A56002A3CDB214C21006F
:10155000C1CBC1C1100001F09FFB0520205601F056
:101560009BFB04200126205601F096FB0623320047
:10157000E35631009A40D0231B069A620522A256F8
:1015800020689140042299623100A25691409962EC
:10159000114901F05FFD012002F002FA0F4B1860C3
:1015A000012002F0FDF9320082400D4B0D49186018
:1015B0000D4B0C201A6001F073F90C20012101F091
:1015C0005DF901202E7005B0F0BD0020FBE7C0469C
:1015D000923D0020203D0020408AF701580F002056
:1015E000540F00200114001014240050F8B5474691
:1015F000CE463E4B80B598461B78002B70D03C4CB5
:101600002378002B03D120BF2378002BFBD00123AC
:10161000384EA025326838499340ED056B50374B62
:1016200080219C4692016244490413680B42FCD11C
:101630000120334F304B396880228840E8502F4BCF
:1016400089019C46520461440B681D0015401342F9
:10165000FAD1A0222B4BD20518602B4B0021D05081
:101660000C2001F00BF9306802F090F9386802F0B4
:101670008DF9264B9946186801F08CFD4B460620E3
:101680000521185601F0C8FA4B46052005211856C9
:1016900001F0C2FA4B4604200521185601F0BCFAAD
:1016A0004B4606229A56012319009140D022120679
:1016B000916249461800497949B28840494690628A
:1016C0001800097949B2884090620122237043468C
:1016D000524232603A600E4A1D7015600D4A156024
:1016E0000120C0BCB946B046F8BDC046923D0020BE
:1016F0005C0F0020580F0020440400000C00005034
:10170000540F0020143400501C040000203D002021
:10171000501B0020541B00201D4B70B51B7804008B
:10172000002B2DD000282BDB1A4A1378002B03D175
:1017300020BF1378002BFBD00420174D0121285621
:1017400001F06AFA06200121285601F065FA052009
:101750000121285601F060FA0521200001F05CFA11
:101760003F2C03DC0D4B1B5D002B0AD10123D02243
:10177000A3401206936101200021536200F06CFF28
:1017800070BD074B2000195D01F074FAEEE7C0460A
:10179000923D00205C0F0020203D0020D022002040
:1017A00090220020F0B5C646040000B5002839DBC1
:1017B000334D2B78002B11D0324A1378002B03D1F4
:1017C00020BF1378002BFBD001222F4BD0219B7917
:1017D00009065BB29A404B681A42FCD101263700D9
:1017E0000521200001F018FAD023A7401B065F61F5
:1017F00001200021984600F02FFF2B78002B14D1F8
:101800003F2C07DC214B1B5D002B03D0204B1B5DC5
:10181000002B2FD100220121200001F017FAD02344
:101820001B069F6280BCB846F0BD0620164D052100
:10183000285601F0F1F905200521285601F0ECF9B0
:1018400004200521285601F0E7F906233200EB5663
:101850009A4013004246936205233200EB569A40A9
:101860001300424693620423EB569E4096623F2C3F
:10187000C8DDCFE701220021200001F0E7F9CEE723
:10188000923D00205C0F0020203D0020D02200204F
:101890009022002070B504000D003F280DD80122D1
:1018A000064B1954064B1A5401F0F6F92000290092
:1018B00001F0E0F92000FFF775FF70BD90220020D5
:1018C000D0220020084B10B51B78002B03D000233A
:1018D0000022FFF7BFFD054A1378002B03D120BF7C
:1018E0001378002BFBD010BD923D00205C0F002030
:1018F000F0B5C64600B51E4C82B02378002B34D01C
:101900001C4D2B78002B0BD11B4B186801F042FCAF
:101910000023002023702B7002B080BCB846F0BDBD
:101920000122164F164E396830688A400368934387
:101930000360144B1A68002398460093013301F0AA
:10194000E1FA114B39681A68434630680093013355
:1019500001F0D8FA0D4B30681A680D4901F0BAFA57
:101960003968306801F0B8F9D2E716204042D3E771
:101970008B3D00208E3D0020142300201C3D0020C4
:10198000EC3C00207C35002074350020A83A002073
:1019900060A1001010B5040001F07EF920000022C3
:1019A000002101F053F90123D022A34012060020A8
:1019B0009361936210BDC0460123D022834010B5CD
:1019C000120693620021002201F040F9002010BDB0
:1019D000F0B55746DE464E464546E0B59A46A44B1E
:1019E00007009B461B788846160087B0002B00D066
:1019F0003AE1A04A9368196888423BD05968884206
:101A000038D09968884235D0DB68984232D0136A62
:101A10001968884200D118E15968884200D114E160
:101A20009B68984200D110E113681968884200D180
:101A30000FE15968884200D10BE19968884200D1D2
:101A400007E1DB68984200D103E193691968884295
:101A500000D105E15968884200D101E199688842C6
:101A600000D1FDE0DB68984200D1F9E016235B422B
:101A7000994668E00023042199464B465B009C464A
:101A80004B44DB00D3180024186902E001348C4277
:101A9000ECD0A300C558AE42F8D14146764B774C06
:101AA0001960774B774D1B7827602E60002B52D141
:101AB0004346002B41DB61464944C900531858682E
:101AC0000028D3DD0023515802E001339842CDD0E5
:101AD0009A008A589045F8D13800FFF75BFF00283C
:101AE00030DB4046FFF756FF00282BDB3000FFF7C6
:101AF00051FF002826DB3800FFF75EFF002821DBBE
:101B00004346002B04DB4046FFF756FF002819DB55
:101B10003000FFF751FF002814DB4846431E984170
:101B2000594B80039C46594B60445146186001F064
:101B300091FA01235A46137005E03800FFF72AFF97
:101B40000028D3DA8146484607B0F0BCBB46B2460F
:101B5000A946A046F0BD4E4B98464E4B4146180054
:101B60009A4601F0E5F800280BD14B4B414618008E
:101B70009A4601F0DDF800285ED105235B429946C4
:101B8000E1E70021504601F0B7F8444F38600028E3
:101B9000EBDB5346424E41465046336001F018F9A4
:101BA000404BC101186080235B020293831C1B031E
:101BB0000B433D4902000B408021C9050B430393B1
:101BC0001F23F8202168C0011940384B0B432968B6
:101BD000890201400B430593354B39680493306803
:101BE00002AB01F0E9F90123396898468B4030686F
:101BF00002681343036043462268009301F082F9B0
:101C000043462A6839683068009301F07BF9294B14
:101C100031689C466144090D06312068C9B200F064
:101C2000FBFF244B31689C466144090D063128684E
:101C3000C9B200F0F1FF7CE70021504601F05CF8EA
:101C4000164F38600028A4DA97E70123032199464C
:101C500013E70023042199460120094B18700CE773
:101C6000012303219946F7E701235B4299466AE77E
:101C70008B3D0020D8A00010783500207C35002056
:101C80008E3D00207435002000C003401423002046
:101C900060A1001000003050000020501C3D0020CA
:101CA000EC3C0020A83A0020FFFFFF9F00001040FE
:101CB000000006100000E0AFF8B5CE4647462E4BB8
:101CC00005001B780E0080B5002B52D02B4B1B78E3
:101CD000002B25D02A4B1A682A4B1F6800290FD0E9
:101CE0003B00012410339C403D1D4618AD00017897
:101CF000090653681C42FCD10130A9508642F6D136
:101D000001231837BB4051680B42FCD093609168A7
:101D10000B42FCD000242000C0BCB946B046F8BD40
:101D2000194F3868002820DA184B012118689846A6
:101D300000F072FF164B01219946186800F06CFF05
:101D4000144B32002900186807F006FE4B460400C9
:101D50001868FFF731FE43461868FFF72DFE386814
:101D60000028D8DBFFF728FED5E7012100F054FF5B
:101D7000DAE716246442CEE78B3D00208E3D00203A
:101D8000EC3C00201C3D00207835002074350020FC
:101D90007C3500201423002010B50022012100F022
:101DA00055FF002010BDC0460123D02283401206FB
:101DB00000205361536270470123D02283401206F2
:101DC00000209361536270470122D02382401B069A
:101DD0005B6813401800431E9841704710B588B0E7
:101DE00004000D220021684602F01EFE0D22002193
:101DF00004A802F019FE6A464B236846137004A932
:101E000000230D2207F0D0FD15210822200069448F
:101E100002F010FE08B010BD8023DB051868000F2B
:101E20007047C0460FB400B5084883B004F0F2FA1A
:101E3000049B002B07D005A91800019104F096F926
:101E4000034804F0E7FA012004F0A8F9349C0010DC
:101E5000989A0010EFF3108072B6034A1368002BB3
:101E6000FCD0BFF35F8F70472C0100D0BFF35F8FB2
:101E70000022024B1A6080F3108870472C0100D0BA
:101E800070B5EFF3108C72B60D4D2B68002BFCD0A3
:101E9000BFF35F8F0724CB08C618C05C01230C403A
:101EA000A3401C000440034207D118433070BFF325
:101EB0005F8F2C608CF3108870BD1000FFF7B2FFAD
:101EC0002C0100D0F8B54746CE46884680B5EFF3E2
:101ED000108C72B6214D2C68002CFCD0BFF35F8FA4
:101EE0009A422CD8D4080727055D0619012417400B
:101EF000BC402C421FD007210127894609E0D408A5
:101F0000055D06194C4639001440A1400C002942D9
:101F100011D001329342F2D201204042BFF35F8FD1
:101F200000220E4B1A608CF3108800280FDBC0BC17
:101F3000B946B046F8BD254310003570EEE7BFF353
:101F40005F8F00232B608CF31088012040424346B2
:101F5000002BECD00898FFF765FFC0462C0100D09D
:101F600030B5EFF3108C72B60A4C2368002BFCD00E
:101F7000BFF35F8F072301220B409A40CD08435DDA
:101F800093434355BFF35F8F002323608CF3108886
:101F900030BDC0462C0100D0044A1078431CDBB28F
:101FA000172B00D9102313707047C0465D0F002017
:101FB00010B5064B064C82B00100009318221F2377
:101FC0002000FFF77FFF02B010BDC046449C001008
:101FD0005C2200200021044B044ABFF35F8F02C340
:101FE0009342FAD17047C046000100D0800100D072
:101FF000142310B50100188804331B88984710BDBE
:10200000162310B50100188802331B88984710BDAD
:10201000F8B54746CE4680B50F1E19D01423994611
:10202000043304000025012698464B461888434691
:1020300021681B88984701C4431E984101354042DE
:102040000640AF42F1D13000C0BCB946B046F8BD41
:102050000126F8E70A4B1968EFF3108072B60A6898
:10206000002AFCD0BFF35F8F1B68BFF35F8F002295
:102070001A6080F3108840BF002000217047C046DE
:10208000183D0020F0B5DE4657464E464546E0B5C1
:1020900083B0EFF3058203231340B54A99005258E9
:1020A0000091904601229A409346B24B1A60B24B7F
:1020B00001935B46B1484363434608229B5E9946C1
:1020C000002B3ADA43469B881BB2002B00DB9DE0D5
:1020D00043469B79002B00D0E1E0434608241C5F77
:1020E000002C20DB43465A6963001B19DB00D31820
:1020F0009D68DC686B1C00D103E1A0480099844610
:102100006144826A0B69AE1A9B1A9E4213D35A46E7
:10211000036A1A420FD0994800F048FB8C4202DC57
:10212000C7D18542C5D940BF03B0F0BCBB46B2465B
:10213000A946A046F0BD0D61EDE7424652695B003D
:1021400092464B44DB009A4453469E68DF6800F099
:102150002DFB8F42B6DC00D1F8E0002F00DAD9E089
:102160005246534654691B69019A934200D1CCE010
:10217000414652460820085E528800042100104360
:10218000984704000D0023002B4300D1C2E0002D2E
:1021900000DBDFE030003900001BA94153469860A6
:1021A000D96000229A5E002A00DA8BE743465D6917
:1021B00053009C18E4002C19A768E4688C4200DDE9
:1021C00080E702D1874200D97CE746463281083653
:1021D0000DE08C4200D1C6E01E000023F25E002A12
:1021E0000ADB53009C18E4002C19A768E4689B18CC
:1021F000DB00EB188C42ECDD53461A804B463380F3
:1022000043469B881BB2002B00DA61E743461A69FC
:10221000EFF3108172B61368002BFCD0BFF35F8F11
:1022200043469E88012342465B42938036B213693F
:10223000BFF35F8F00221A6081F31088002E00DA4E
:1022400046E743465D69083342469C467700BF191E
:10225000FF00EF19BB68604698460823D15E92469E
:10226000FC68002907DA0EE0A24246D018000023DD
:10227000C15E002906DB4B005B18DB00EB18DA6857
:10228000A242F1DD524606800023FE5E3980002E18
:10229000DCDA904643469B79002B00D11DE70023F2
:1022A00042469371434646460821595E08364B1C08
:1022B00000D138E747468946556902E006004B1CC5
:1022C00018D04B005B18DB00E8180A008C46E95E6A
:1022D00043881BB2002BF1DA01235B42DC178360D9
:1022E000C4604A4503D031803B8903803A81E1468E
:1022F0004B1CE6D1B8464C46F2E69A684245B5D941
:10230000C0E7631C00D0F8E605E720002369984782
:10231000002825D1534642461B8813811269EFF3EA
:10232000108372B611680029FCD0BFF35F8F42465C
:10233000514652880A804246494651801269BFF38D
:102340005F8F0021116083F31088BBE6864200D8BE
:1023500003E7B7E6094800F029FA001969411DE7CB
:10236000656824680FE7874200D835E744E7C04630
:10237000F03C00203C7005408520001000400540E6
:1023800070B52E4C2569002D04D00A212C4800F090
:10239000F7FB70BD2B4E0321300000F0FDF9E66025
:1023A000FFF7FAFD284B03229C46D02322701B0620
:1023B0001B6801216370254B6044A3600F238000DC
:1023C00020610220638063694942A1801980023143
:1023D000198647311D83585218315A5275325C396B
:1023E00099521832013199521832013199521832EA
:1023F00001319952083518329D52023118329952E2
:102400001832013199521832013199521832013182
:1024100099521832013199521832013199520C4BAC
:102420000C49DC600130356200F03AFA01210320EA
:1024300000F024FA084B1D60A7E7C046680F002093
:10244000183D00200040054040000034FFFF100010
:10245000F03C0020852000103860054070B5010078
:102460000469EFF3108C72B620680028FCD0BFF32B
:102470005F8F02200D5E4C6968004019C00024186F
:10248000002D37DB208848800869BFF35F8F002666
:1024900006608CF31088E360638804980133206140
:1024A0005B0405985B0CA26060611A1C002B1FD0B6
:1024B00093B22804628018430A69EFF3108C72B655
:1024C0001368002BFCD0BFF35F8F8B8823808D8037
:1024D0000B69BFF35F8F00221A608CF310880B78B2
:1024E00001329A40CB6808498C4663441A6070BD3B
:1024F0000122DDE70B69BFF35F8F00221A608CF3C6
:10250000108801204042F2E73C20000010B54389CA
:102510000A1493421ADD53009B184269DB00D3185A
:102520000469EFF3108C72B62268002AFCD0BFF366
:102530005F8F5A88090494B2090C8A4208D0036953
:10254000BFF35F8F00221A608CF31088002010BD4B
:102550008022120214435C80012302698371BFF35D
:102560005F8F002111608CF31088044902788C463B
:102570009340C268012062441360E8E73C200000F9
:10258000F0B504000D0006267642F717C646361948
:102590006F4100B582B08F4214D811D000F00EF90F
:1025A00032003B00121A8B41002B17DC002B47D066
:1025B0002000290000F040F902B080BCB846F0BD10
:1025C0008642EBD90022002316001F0000F0F6F827
:1025D00032003B00121A8B41002BE7DD00F0EEF8D1
:1025E00032003B00121A8B41002B0ADB00230193BF
:1025F000154B3200009315483B00FFF72FFF0028D2
:10260000D6DB00239C46B046114A124E736A9F42A5
:1026100004D8B16A8845CBD99F42C9D11168EFF37C
:10262000108072B60B68002BFCD0BFF35F8F13686D
:10263000BFF35F8F6146196080F3108820BFE5E724
:10264000002AB5D0CAE7C04655200010680F002008
:10265000183D00200040054070B504000D0000F05A
:10266000ADF88023001969411B06994202D301206D
:1026700002494042FFF784FF70BDC046FFFFFF7F65
:10268000F0B5D6464F464646C0B504000D0082B0B0
:10269000EFF305830F00002B31D13B4B98461B68AD
:1026A000834227D0394B9946DB689A464B465046C1
:1026B0001E7800F07BF80B00514602000436B6008D
:1026C00071582000891A8C4629000026801A9941E9
:1026D0008E4224DC21D020BF2D4A536ABB422AD32C
:1026E000926A0120A24213D302B0E0BCBA46B146BE
:1026F000A846F0BD43465B688B42D3D1EBE7244943
:1027000000204B6AAB42EFD38A6A0130A242EBD27F
:102710005B1B5A1E9341D8B2E6E78445DBD900F033
:102720004DF822002B00121A8B41002B05DA184AB3
:10273000536ABB42D4D20020D6E700230193154B45
:102740002200009348462B00FFF788FE011EEEDDB5
:1027500043461C605D600E4B5A6ABA4211D39B6AB5
:10276000A3420CD34846FFF7D1FE094A0020536A22
:10277000BB42B9D3926A0130A242B5D2C8E7BA428D
:10278000F0D120BFEEE7C046600F0020680F0020A8
:10279000004005405520001010B5024A0248FFF7DE
:1027A0006FFB10BD609C0010602200200300416A96
:1027B0000A00986A596A8A42FAD17047034B596AEB
:1027C0000A00986A596A9142FAD170470040054060
:1027D00070B504000D00174A536A1900966A536ACF
:1027E0008B42FAD13000190024184D41AB4216D863
:1027F00013D0104A2B00526A954203D90D494A6AF8
:102800009A42FCD39A4207D10A4A02E0516A99429D
:1028100002D1916AA142F9D370BDA642E9D9054B14
:102820005B6A1C005A1CEFD0012301246442E517A7
:102830005B42E3E700400540064A536A9942FCD8F0
:1028400007D1044B02E05A6A914202D19A6A82424D
:10285000F9D3704700400540054B064A1360064A0D
:10286000136053609360D360136153619361704749
:102870008080808000E400E004E400E01F23184032
:102880001E3B8340002905D0C021044A4900535013
:1028900013607047802201498B50FAE700E100E0A5
:1028A00010B5EFF3108C72B60F4A1368002BFCD0F2
:1028B000BFF35F8F0D4B10309B6880001B580C4A94
:1028C000934201D099420CD1084B9B681950BFF339
:1028D0005F8FBFF35F8F0022034B1A608CF3108869
:1028E00010BD01F071F8C046240100D000ED00E0F9
:1028F000C1010010F0B557464E46DE464546E0B5EC
:102900008A4685B00600EFF3108972B663490B68FA
:10291000002BFCD0BFF35F8F0021614B59568C46D2
:10292000002900DAB7E049000D005E4C6544AD00B7
:1029300067190291B979103619705B4BB1009B6829
:1029400001915B58191B2F2935D8012118008843A4
:10295000C679964200D875E09B46029B019E984638
:10296000039507E04D006D18AD006519EB799342B2
:102970004ED92800062141560029F3DA45465B4628
:1029800001960295061D494D0396039E043FBF1B09
:102990003F05474E7F0D3743664687808671029814
:1029A000604480002418E27152464248A5802060AD
:1029B000A171A26018E040498B4200D06BE03F4B10
:1029C0003B4963533E4B0235043B65195B1B1B05BA
:1029D0005B0D0B437B803B4BFA71BB80FF23BB71CC
:1029E0005346BB6001233B432F4A019992685350E1
:1029F000BFF35F8FBFF35F8F0022284B1A6089F30C
:102A0000108805B0F0BCBB46B246A946A046F0BD52
:102A100001964646029686885B467605B346061DB5
:102A2000039D03965E463615B346061DB046C34465
:102A30005E4604356519751BE0262D056D0D3602C1
:102A40003543A2E7204BFA719C46030066461B1BE8
:102A50005B415E43360DB446AE1CB046A0444646CC
:102A6000164B6353164B0435043B9B1B1B05104E42
:102A70005B0D33437B806319C31A043B1B055B0D5D
:102A80003343BB806346BB715346BB60094B036055
:102A90003B000B43A8E700F097FFC046240100D09D
:102AA0008D3D0020800F002000ED00E001BD000002
:102AB00000E0FFFF01488047C101001000A1FFFFB7
:102AC000B00F002001BDFFFFAAAA000070B50124CD
:102AD0000443EFF30581EFF3108C72B6214A1368BB
:102AE000002BFCD0BFF35F8F1F4B05001F4AED1A70
:102AF0006D416A43120D1E4D8900AE6852B2765880
:102B0000A6421CD00621595691421CD0122159567A
:102B1000914222D01E215956914220D02A21595645
:102B20000324914210D0134B19781A708171BFF3AE
:102B30005F8F00220B4B1A608CF3108870BDAB685E
:102B40000D4C5C50EFE700246100091989005B1807
:102B5000FF21997109499980E5E70124F4E70224EE
:102B6000F2E7C046240100D0800F0020AAAA00008E
:102B700000ED00E08D3D0020C101001001BDFFFF10
:102B8000024B9C466144890001607047400000345C
:102B900070B5114C114DAC420FD2FF262368002BAB
:102BA0000CD0FFF7F9F901002000FFF7E9FFA6803C
:102BB000BFF35F8F0834AC42F0D370BDFFF7ECF980
:102BC00001002000FFF7DCFF2671BFF35F8F0834A0
:102BD000AC42E3D3F1E7C046401100205011002081
:102BE00010B50400FFF7D8F901002000FFF7C8FF77
:102BF000FF232371BFF35F8F10BDC04610B50400E3
:102C00000120FFF7D5F9034BC3189B002360BFF3E6
:102C10005F8F10BD40000034094A83009A1810B538
:102C200014684022544080322240064CC000A44622
:102C300063441A60044B9C466044416010BDC0462A
:102C400004C0014004D0014000400140074B800017
:102C5000C3181B68C90092000A435A400C23134052
:102C6000034A9446604403607047C04604C0014074
:102C700004D00140064BC000C3181B68090259402C
:102C8000C0239B001940034B9C4660440160704781
:102C900004400140045001400123D0228340120629
:102CA00093629361094A83009A1811684022514047
:102CB00080320A400649C0008C4663441A60054BC6
:102CC0009C460523604443607047C04604C00140F1
:102CD00004D0014000400140054B10B59C466044C3
:102CE000000D800041180348FFF73AF910BDC046B7
:102CF0000000E0AF6422002010B50A4B0A4AC41855
:102D0000240DA40082B0009208482200E31CFFF7C3
:102D1000D9F8844202DC001B02B010BD0120404201
:102D2000FAE7C0460000E0AF849C00106422002057
:102D3000F0B5C64600B50D000400FFF78BF805237B
:102D4000214AEB5690469C46012244441F4B297968
:102D5000240DA4008A40E7586346013A002B18DB93
:102D6000202366465B1A9C4522D81300B3400024FA
:102D70001F4208D1AB79002B05D1B24014003C4072
:102D800063425C41E4B2FFF771F8200080BCB846B2
:102D9000F0BD20235B1A0BD4110099400F4205D1DE
:102DA0000DE0110099401E000F4203D0013BF8D204
:102DB0000024E8E7AB79002BDFD00024E3E7AC790F
:102DC00063425C41E4B2DEE70000E0AF481B002054
:102DD000F0B55746DE464E4645468846E0B583B0D8
:102DE00006000524FFF736F8434684461C57187939
:102DF000364B374AF3181B0D9B009246D7580122D9
:102E00008240013A002C42DB20212500091A8C4225
:102E10003AD81100A1400F4236D14146096889468F
:102E20004146897900294DD1AA4093463A423FD183
:102E30008021890100228846002816D06146A446D8
:102E400034004E469946030001915100705A4045A6
:102E500000D24019511912318900013208519342B0
:102E6000F3D8019B64469C464B465A46174352464C
:102E7000D7506046FEF7FAFF200003B0F0BCBB4617
:102E8000B246A946A046F0BD01246442F1E72024E1
:102E9000241A251E0CDB1100A1408B46394205D1B6
:102EA00009E01100A14025000F42B6D0013CF8D244
:102EB00009246442DDE7424612689146424692790F
:102EC000002AB5D014246442D3E7C0460000E0AF26
:102ED000481B002070B501250B7904009D40013D81
:102EE0009540FEF7B7FF054B0549E3181B0D9B0006
:102EF0005A58AA435A50FEF7B9FF70BD0000E0AF20
:102F0000481B0020F0B54E464546DE465746E0B524
:102F100083B089460CA984460D781F2A45D84946B6
:102F2000490088464944C900461837003400DC3758
:102F30003868CC3483462068310001901C488024D6
:102F40008246A40251440C6069424D411E216D42EB
:102F50008D4318498A465544052B0CD9A0201F21C2
:102F60004005D836540104430532053B3C600A4015
:102F70003560052BF6D852019B06134342464A445E
:102F8000D20062441000DC3213600300D8331D60AD
:102F90005B461360019BCC300360002003B0F0BCA3
:102FA000BB46B246A946A046F0BD05204042F5E723
:102FB000CC3000009FE00000F0B501258D40046892
:102FC000AC430460002B2ED04D006C18E4000419B3
:102FD00026001F68C83637609F68043677605F68D0
:102FE000DB68DC34376023606B18184DDB00AC46BF
:102FF0008025C41864442D0625602560144C0D1DE1
:103000008C40846001242600AE40802508318C402D
:103010001F21AD014519C0180A40D8302E602C6020
:1030200002600020F0BD4D006C18E4000419260079
:103030008027C8367F023760C0273F03B760F82774
:1030400004367F02DC3437602360CDE7D010000007
:1030500001010101494A0300944663445A1E934109
:103060008022F0B54E46DE465746454692029446CB
:10307000E0B55B421B0C424A1B04634485B00290DE
:103080001360404A0E004049136018000A689043DC
:10309000FBD1062000F08AF90223029904008C4635
:1030A0004A6801901A4003920A1D9046374AF10D72
:1030B000624491461360700200295AD1A04258D848
:1030C000802464000227A246B446B30DB20204E095
:1030D000019E96420AD322002B000237574505D0A5
:1030E00004000D00A4185D41002BF1D06646019B41
:1030F00080259A46B3463C02E41B6D002E00013D3C
:10310000002D38D02100504600F0B6FDE41B834569
:10311000F4D2310079432D02029CFF228026A4467E
:103120002761236812026B407601664413403360C6
:103130008023039A9B0143441A604D4602220727CD
:1031400060682A60256810406F40CF253D4035609B
:1031500018600F48844603206444206001981A6078
:1031600000F08AFD05B0F0BCBB46B246A946A046B9
:10317000F0BD0227BBE73900CEE7C0460000FCBF28
:1031800000E0004000F0004008C0004004300000B3
:103190002420000002220A4BC3181A60094B013296
:1031A000C3181A60084BC3185A1E9341802292021A
:1031B00094465B421B0C054A1B0463441360704732
:1031C00004300000243000000000FCBF00E000409C
:1031D000F8B5DE464E4657464546E0B58B460500F7
:1031E0000A991800160000F047FD0A9B6C001F02A8
:1031F000324B64199C46A4006444636881469F4234
:1032000000D967602B1FDBB29846012B30D9C02351
:1032100080229B01E31812011A60294BAD00595915
:103220009A4600291BD17301E026226853401E40B4
:10323000802342465B01E3181E60012A30D98023B7
:1032400080229B01E31812011A6053464A466760C8
:103250005A51F0BCBB46B246A946A046F8BD5869D3
:1032600000F00AFD013043001B18033BFDD2DAE7F2
:103270005B46012BCBD1C02303229B01E3181A60CC
:10328000023AA3681A42FCD07301E0262268AD001E
:1032900053401E4080230A4A5B019246E3181E6099
:1032A0005A462168514003220A401A6001225B46B7
:1032B0009A40A3681A42FCD0C1E7C0460080004093
:1032C00068220020F0B546464F46D646C0B51F00DE
:1032D000344B44009C462418A40064446368884628
:1032E0001600FF2B02D880235B006360031FDBB254
:1032F0009A46012B30D9C02380229B01E31812018A
:103300001A60294B85005959994600291BD1730130
:10331000E026226853401E40802352465B01E3189A
:103320001E60012A30D9802380229B01E3181201FC
:103330001A6080235B0063604B465F51E0BCBA4675
:10334000B146A846F0BD586900F096FC0130430034
:103350001B18033BFDD2DAE74346012BCBD1C02338
:1033600003229B01E3181A60023AA3681A42FCD0B8
:103370007301E0262268850053401E4080230A4ADC
:103380005B019146E3181E604246216851400322CA
:103390000A401A60012342469340A2681342FCD0BF
:1033A000C1E7C0460080004068220020014B800039
:1033B000C05870476822002070B5152820D0172803
:1033C0001CD018281ED00500193D6C1EA5410224F2
:1033D0006D42A54303354C018021090121436C0056
:1033E0006419094D1B0AAC46A400120264441A4336
:1033F000216008216260FFF70FFC70BD0125EAE73C
:103400000025E8E70225E6E700800040F0B54746E2
:10341000CE4680B55B4B15005A680700884683B0DE
:10342000FF2A02D8802252005A600322564B554E82
:103430001A600123B4682342FCD020223168514035
:10344000C0320A4051490A6032684E4E5A40032346
:1034500013400B600223B4682342FCD080224C4B03
:1034600012011A6080235B0073604A4C99464A4BF4
:103470003A006361012143464848009500F0BCF9D9
:1034800041463800694300F0F7FB454B05005A6898
:10349000FF2A01D84A465A608022424B12011A6024
:1034A0002169002907D0606900F0E6FB0130430084
:1034B0001B18033BFDD2E022394B3B4819680A40F8
:1034C000026002221968514001320A400421026060
:1034D0009A681142FCD08021344A0901116080228F
:1034E00052005A60324B2361264B5968FF2900D89D
:1034F0005A6003220121244B1A60224A9368194220
:10350000FCD0E023106803402048036012680323C6
:103510004A40022113401B4A036093681942FCD0C1
:1035200080211B4B090119608021224B4900516009
:1035300065615A68FF2A00D8596080221E4B12012B
:103540001A60A169002907D0606900F095FB01307D
:1035500043001B18033BFDD2402316490A685A401A
:10356000A0331340154A13608022154B12011A60D4
:1035700080235B004B60084BA36103B0C0BCB9461D
:10358000B046F0BD3C8000403CB000403C90004064
:103590003CA0004068220020006CDC020080024059
:1035A0003080004030B000403090004030A00040FB
:1035B000001BB7004880004048B0004048900040E1
:1035C00048A00040F0B54E464546DE465746E0B5B9
:1035D0001E00844B05009846A0235B009B46824B4F
:1035E000D9469A4643468B4685B00093029203968D
:1035F000009B53450DD901235B429C467B4AE14425
:103600009446009B634400934B460F2BF0D100205F
:103610008FE01F00764B31219C466744380000F054
:103620002BFB07263124854264D0741EB0462E0041
:10363000250044466C433800210000F01DFB864203
:103640004CD06B1E0193012D00D1B2E04346E41A29
:103650002100380000F010FB864259D0AB1E0193C8
:10366000022D00D1B1E04346E41A2100380000F0F9
:1036700003FB864264D0EB1E0193032D66D04346C4
:10368000E41A2100380000F0F7FA864269D02B1FB7
:103690000193042D6BD04346E41A2100380000F05A
:1036A000EBFA86426BD0052D6DD03800E11F00F09B
:1036B000E3FA864200D171E00623242138009846BF
:1036C000242400F0D9FA864212D0052544466C43E2
:1036D0003800210000F0D0FA8642B2D10029B0D1E2
:1036E0005B462C00CB4647469946029A039E18E05B
:1036F000350046462100380000F0BEFA002994D17A
:1037000037005B463C00CB46029A9946039E08E090
:103710000029A3D15B464746CB469946029A039EB1
:10372000019C5B463349012059434B4619601760A1
:10373000346005B0F0BCBB46B246A946A046F0BD19
:103740000029E7D0EB1E0193032D98D10323092113
:1037500038009846092400F08FFA8642C8D0022526
:1037600067E70029D6D02B1F0193042D93D10423A2
:10377000102498463B099E42BAD0032559E70029F8
:10378000C8D0052D91D119213800192400F074FA00
:10379000B04223D00523042598464AE7002900D0EB
:1037A0008AE75B464746CB4601249946029A039E28
:1037B000B7E73500B74200D01DE75B460127CB468F
:1037C00001249946029A039EABE7022304249846FB
:1037D000BB089E4200D18BE701252AE7350005266C
:1037E00088E7C04650262F0050F80C0020D1FFFF7C
:1037F000B0710B00001BB700F8B5040021481E0093
:1038000017000D0000F038FA0100380000F034FA1B
:10381000069B36041B031E432368002B20DB1A4B38
:103820001A49E3185A1E93418022920194465B4242
:103830001B0B174A1B0363441360164A13601F00D7
:103840000A689743FBD1144B2560E2182123A0603E
:1038500013602368002BFCDA0823E6601360F8BDD0
:103860003F2322681340AB42D9D1A3681B051B0D2F
:103870008342D4D1EE22E368D2021340B342CED1C8
:10388000EDE7C046001BB7000040FDBF08C0004088
:1038900000E0004000F0004004300000044B000154
:1038A0001B68044A5840F023034013607047C04629
:1038B000004006400050064010B580241C4BE40533
:1038C0001C6000281AD001231A4C18431A4BDC61E3
:1038D0001A4C44401C62596298628021144BC905FD
:1038E0001960174817490860E021C9041960002AC7
:1038F00007D18022144B12061A6010BD0E4BD861FE
:10390000EBE753019B1A9B009A18802312015B047A
:103910009A4209D213000D490B60074B5A6080226E
:10392000094BD2051A60E8E7094B1A00F3E7C046D5
:1039300000B00540D3C007B0008005402D3FF84FD0
:10394000FCFF01000820014000A00540A43A00202F
:10395000FFFFFF008023024A9B000B43D3627047A6
:1039600000800540AA23064A1B0113608D235B00DB
:10397000D3600449044B19605368002BFCDA70478C
:103980000040024000B0FA000060024010B5034B56
:1039900001001800FEF7E4FA10BDC046803D00208B
:1039A00010B5064B064C82B00100009300220B2399
:1039B0002000FEF787FA02B010BDC046A89C001098
:1039C000803D00207047C04610B50148FEF72AFA36
:1039D000C89C001070B5074D074EB54209D20024AF
:1039E000013E761BB60808CD984723000134B34248
:1039F000F9D170BD189A0010589A0010054B064A6C
:103A000006491A60064A074B1A6010000B68984373
:103A1000FBD1704700E00040BFCDFBFE08C0004076
:103A2000FE7F3C0000F00040044BDB6C002B03D118
:103A30008022034BD2021A607047C046000011502A
:103A40004C201150044A054B1A60054A1368DB01EB
:103A50008033FBD17047C046FFFFFF0100F00040FC
:103A600008C000404022034B9A675A671A67DA661B
:103A70007047C04600F0014010B5FEF7ABFA10BD2C
:103A8000F8B52749274C284D641AA4082200302C89
:103A900000D930222800920000F0CCFF2F2C3BD818
:103AA00030202F21A700EB195B07204A001BDB0FFA
:103AB000091B052916D92600002B01D0EA51661CE6
:103AC000C01AE3189B004108EB18C900C9181A6016
:103AD0005A6008338B42FAD1012303421CD0984329
:103AE0008419A700EA51631C2F2C15D09B00EA50C3
:103AF000A31C2E2C10D09B00EA50E31C2D2C0BD0C5
:103B00009B00EA50231D2C2C06D09B00EA50631D1D
:103B10002B2C01D09B00EA50054B9D60F8BDC046A0
:103B200000010010C001001000000020C1010010C1
:103B300000ED00E0002310B5294C82B0A367FFF729
:103B400011FF0122274B1A60636C012BFCD1032269
:103B5000254B1A60224A936B012BFCD10133009351
:103B60000121224A22480433FFF746FE05230121A2
:103B70000093204A2048FFF73FFE00220221042044
:103B80001E4BFFF79FFB0022012105201C4BFFF776
:103B900099FB0022002107201A4BFFF793FB00221C
:103BA00000210820174BFFF78DFB8023DB000093DB
:103BB000002200210920134BFFF70AFB0022104BC3
:103BC00000210620FFF77EFB0420FFF7EFFB0E49E4
:103BD00000F052F801000020FFF7BCFE02B010BD5B
:103BE000008000403CB0004030B00040002F6859D9
:103BF00000800240008C864700C00240001BB700D6
:103C000040597307006CDC0240420F000148042158
:103C1000014B1847D00F002011200010014B9B686A
:103C200018470000D00F0020124A936F9B0815D24E
:103C30009066D166002905D0FFE7FFE7FFE7516FE7
:103C4000106F704704B580210906C2175140002843
:103C500000D0C84305F0D0FE002104BDF0B5146EBD
:103C6000556E576F166FFFF7E3FF1466556657677B
:103C70001667F0BD000000D0114A936F9B0813D265
:103C800010665166002905D0FFE7FFE7FFE7516F97
:103C9000106F704704B5002801D00020C04305F024
:103CA000ABFE002104BDC046F0B5146E556E576FD3
:103CB000166FFFF7E5FF1466556657671667F0BD88
:103CC000000000D094464A4A926F9208624601D2A0
:103CD00028E0C046F0B5464E346E756E776F366F8D
:103CE00000F020F89446424A1466556657671667F6
:103CF0006246F0BD94463E4A926F9208624601D2F7
:103D000054E0C046F0B53A4E346E756E776F366F3C
:103D100000F04CF89446364A1466556657671667A5
:103D20006246F0BD002B24DB11D000293EDA00B53D
:103D3000C943404200D1013100F038F8C943404244
:103D400000D10131DB43524200D1013300BD002AD2
:103D5000EBD1002801D1002905D00020C90FC907E7
:103D600001D1C043410800B505F02EFE002200231A
:103D700000BD00B500290ADBDB43524200D101330C
:103D800000F014F8C943404200D1013100BDC943DD
:103D9000404200D10131DB43524200D1013300F0F7
:103DA00005F8DB43524200D1013300BD002923D185
:103DB000002B18D1002A0CD0BC460D4F38667A660D
:103DC00000210023FFE7FFE7FFE77A6F386F6746C0
:103DD0007047002801D00748010000B505F0F4FD48
:103DE0000022002300BD02000B00002000217047CC
:103DF000000000D0FFFFFFFF002B00D0BFE0130C3E
:103E000028D1002AE7D080B4114F39667A66FFE7DF
:103E1000FFE730B4040C7B6F396F1B0423433B6610
:103E20007A66FFE7FFE7FFE7C04684B27B6F3D6F2E
:103E30001B0423433B667A66FFE7FFE7C046002387
:103E40002C042D0C7A6F386F00196941B0BC704793
:103E5000000000D0F0B594460025140E01D11202E6
:103E60000835140F01D112010435940F01D19200CD
:103E70000235D40F01D152000135D40B0134254F46
:103E80007C66254C3C660E0C93B2FFE7FFE7FFE72C
:103E90003C6F6643360C7703BE467343DF0B5B040F
:103EA000C01AB941130C7343DB18C91ACE08664314
:103EB000360CB64493B273431F0F1B01C01AB941AD
:103EC000130C73431F0B1B05C01AB941860D8F02DB
:103ED0003E436643360C092D24DB520A7243801A96
:103EE0007703460A6643360C16235B1BDE40DF4031
:103EF000BF1964466643821B7046043506330100D1
:103F0000D940A840C01900D30131A24206D20023F3
:103F1000F0BD0000000000D0FFFFFFFF121B0130CA
:103F2000F3D3F1E709277F1BFE406446A2B2724338
:103F3000801A00D20139220C7243130C1204821A27
:103F400099410B007046043513370100F940A84031
:103F5000801900D30131002B02D1A2420AD2F0BD58
:103F6000013000D30131121BFAD2013BF8D1A24239
:103F700000D2F0BD013000D30131121BF7E7F0B5DC
:103F80001C0C00D080E00CB400251C0A04D11B02DC
:103F9000160E3343120208351C0B04D11B01160FF9
:103FA0003343120104359C0B04D19B00960F33431D
:103FB00092000235DC0B02D192185B4101351C00E6
:103FC000971864410134464F7C66464C3C660E0CA3
:103FD000FFE7FFE7FFE7C0463C6F6643360C770319
:103FE000BE4697B27743C01B00D20139C01B00D236
:103FF00001399FB27743C91BC91B170C77437E0455
:10400000FF0B801BB941CE086643360C0C2D33DB09
:10401000B644120B1F053A431B0B97B27743C01BE4
:1040200000D201399FB27743C91B170C77433E0476
:104030003F0C801BB941860D8F023E436643292702
:104040007F1BFE400C3D7746AF40BF1930BCA2B28B
:10405000ABB272437343801A9941220C7243130C22
:104060001204801A994102000B000137001BA9417C
:10407000F9D2781E0021F0BD0C277F1BFE40774649
:104080007F0BAF40FF19E0E700245D1C07D0144F01
:104090007D663966FFE7FFE7FFE7FFE73C6F95B214
:1040A0009EB265436643401BB141150C1E0C65432F
:1040B000664336042F0C3E432D04401BB141994208
:1040C00004D202000B0020000021F0BD01D190427B
:1040D000F7D3801A994101349942F2D3F6E70000F0
:1040E000000000D0FFFFFFFF48404140484018B4A7
:1040F0001B4B5B68FC46019308BD04DF8343001043
:1041000018B4174B1B68FC46019308BD00DF8D43B4
:1041100000109446134A926F920809D2624618B46E
:104120000F4BDB68FC46019308BD0CDF45460010D1
:104130000C4AF0B5146E556E576F166F6246FFF756
:10414000EEFF084A1466556657671667F0BD18B447
:10415000034B9B68FC46019308BD08DFE94400104F
:10416000D0120020000000D0FFB550404240504027
:1041700059404B40594000E0FFB5154F4C00640DCD
:1041800003D0BC4204D10C0314D80020090D09054A
:104190005C00640D03D0BC4204D11C030AD8002289
:1041A0001B0D1B0501264B4009D44B4003D58B4208
:1041B00000D18242FFBD9942FCD19042FFBD0B432A
:1041C000DB1803431343F5D0C9434918FFBD000072
:1041D000FF07000000B5FFF7CFFF804100BDC046DC
:1041E00000B5FFF7C1FF01D9002000BD012000BDCF
:1041F00000B5FFF7B9FF804100BD012040054A002E
:10420000121804D85A00121801D800207047012053
:10421000704700000021002805D17047C1174840B1
:10422000401AFAD0C90713B5064B1B6898470CBC57
:10423000441CA2401005120B0349091B0905194330
:10424000114310BD143D00201F04000010B54C00A8
:10425000620D8023D218DB00D21A5B057E2A10DDA6
:104260009E3A13DACC170903490819435242D14048
:10427000640001341532202A05DAD0400843604337
:1042800010BD002010BD0846604310BDC80FC01807
:10429000013810BD18B4044B5B6AFC46019308BD9D
:1042A00024DFF54700100000D0120020132370B562
:1042B0001D78012D19D014DD1F48FDF7A1FE060061
:1042C0001E48FDF79DFE1E4C80223100200000F0AC
:1042D000B1FB022D2DD01B48FDF78AFE1A4B18604A
:1042E00070BD1A4B164CA364F5E7184B144C2360B1
:1042F0006360A360E36023616361A361E3612362A0
:104300006362A362E36223636363A363E36323647F
:104310006364A364E36423656365A365E36523665F
:104320006366A366E36623676367A367E367A364C3
:10433000D1E7064BA364CEE7534400005346000088
:10434000D01200204C330000143D002051430010D7
:1043500007B5604601880A0A0230DF2AFAD1C9B2DD
:10436000820804D3028840880004104300E00068FB
:10437000014A5050039007BDD01200200FB403BC77
:104380000CBCF0B50124E407634000E0F0B50C0D6F
:10439000CF0F661E3605891B640503D3C94340420F
:1043A00000D30131640D03D0661CF60A07D0E41B6C
:1043B00000207F00791C89078912803C24031D0D91
:1043C000DF0F6E1E36059B1B6D0503D3DB43524288
:1043D00000D301336D0D03D06E1CF60A07D0ED1B20
:1043E00000227F007B1C9B079B12803D2D032F1B0F
:1043F000661B58D4A446202E46DA20371400BC4051
:104400001D00BD40F24033412A4380185941CB0F73
:1044100005D0C943C0430022644250415141624625
:104420004D0D28D10D0D07D100281FD02419404172
:104430004941013A0D0DF9D0640006D3013000D393
:104440000131002C01D140084000013A0BD4941CEA
:10445000E40A04D112051144DB071944F0BDD90761
:10446000204B194300E0D9070020F0BD0029DDD121
:10447000002CDBD1F0BD0132C6074008CD07284330
:104480004908002EE1D0D9E73C2E29DA203E4037FA
:104490001400BC4000D00124F24014431A00BB4079
:1044A0001C43D317ACE7AC46202F08DA20360400B3
:1044B000B4400D00B540F84039412843A5E73C2FF2
:1044C0000CDA203F40360400B44000D00124F8400C
:1044D00004430800B1400C43C117EAE7100019007B
:1044E000002494E70000F07FF0B50C0D661E360541
:1044F000891BE60A6405640D02D0651CED0A04D030
:10450000002001210905803C2403A4461C0D671EE0
:104510003F05DB1BE70A6405640D02D0651CED0A4C
:1045200004D0002201231B05803C2403774064440F
:1045300097B484B296B27443070C7E43150C6F4354
:1045400080B26843361802D3012000043F183004BB
:10455000350C00197D41844688B29AB250430C0C48
:1045600062431F0C7C438EB27E43921902D3012614
:104570003604A4191604170C3618674101BC81B221
:104580009AB25143040C62431B0C5C4380B2584303
:10459000121802D30120000424181004130C401830
:1045A00063412D185E410020474106BC88B293B29A
:1045B00058430C0C6343120C544389B251435B18AB
:1045C00002D301210904641819041A0C0918624164
:1045D0006D1856410020474118BCF902720D114375
:1045E000F0026A0D1043ED020A0D03D16D1940412E
:1045F0004941013B124E9B1B7600B3420ED26D0027
:1046000007D30130002671416646354301D1400889
:1046100040001B05C918E4072144F0BD0BDA013343
:1046200006D1013004D101314F0D01D04908F2E724
:10463000E1070020F0BD013631050020EBE7000066
:10464000FF030000F0B51C0D671E3F05DB1BE70AEA
:104650006405640D02D0661CF60A04D00022012312
:104660001B05803C2403D0252D060026F6432E662C
:104670001E096E66CE0FF619B44649004F0D02D0E2
:104680007E1CF60A03D000200021403F3F033E1B62
:10469000B600B444013F7F05C91B49082E6F01369F
:1046A00076089C02950D25437543ED137543AD13B4
:1046B00001356D10F603761B0CB4CC02450D2C436E
:1046C000A2B2B3B25A43270C7B43350C6F43A4B25A
:1046D0006C431B1902D3012424043F191C041D0C34
:1046E000A4187D4124196D41009A91B2ACB2614386
:1046F000170C7C432B0C5F4392B25A43A41802D38D
:1047000001221204BF182204230C52187B41019C81
:104710006C431B19520ED9010A434401A01A81B2FD
:10472000B2B2514303145A43360C734387B27743F2
:10473000D617D21900277E4136049B191704160C90
:104740007F185E417316ED18F30100268033754122
:10475000A90F06D16400690AE8055B0A184309D26B
:104760002FE00422944480337541A90AA8059B0ACE
:10477000184326D3404149412404009A019B0D006F
:104780005543641B4343E41A95B286B27543170C34
:104790007E43030C5F4392B25A43B61802D3012200
:1047A0001204BF183204330C52197B4152429C410F
:1047B000002C02D40022013051414008CA071043A6
:1047C000490802B06246D7079210084BD218084B2E
:1047D0009A4203D212058918C919F0BD0020002A97
:1047E00001DC3900F0BD01331905F5E7FD030000D8
:1047F000FE070000002200B5203200F004F8080097
:1048000000BD000000220B150AD410B5944600F03C
:1048100031F81414013400DA0021CB17144C20476E
:104820000020002170476244343A0CD40C2A07DA85
:1048300004009140904052422032D440214310BDA8
:10484000D843D94310BD203207D40C46944052427D
:1048500020321141D040204310BD0800C91720323A
:1048600003D452422032104110BD1800190010BD6F
:10487000274800100A0DCC0F531E1B05C91A5205FC
:1048800003D3C943404200D30131520D03D0531C1E
:10489000DB0A07D0121B00206400611C8907891203
:1048A000803A1203014BD21A70470000FF03000048
:1048B00051434343C9188C46110C83B24B4310B487
:1048C000040C614392B280B2504362431C041B0C3F
:1048D000001910BC59411304120CC0185141614415
:1048E000704700004840414048400E4B5B68184705
:1048F0000C4B1B6818470C4A936F9B0802D2094B5C
:10490000DB681847F0B5146E556E576F166FFFF7DA
:10491000F6FF054A1466556657671667F0BD014BEA
:104920009B681847D0130020000000D0491A0028C7
:1049300008D1084670470000C10FC90700D54042A2
:10494000002817D0F44603B40B4B1B68984706BCED
:1049500081409E384042803107D20B0607D0490083
:10496000490AC0051043084360470130F8E7490A87
:104970008902F5E770470000143D0020014B5B6A97
:1049800018470000D0130020132310B512481C78DC
:10499000FDF736FB0100012C0AD003DD80220F4811
:1049A00000F048F80E48FDF723FB0E4B186010BDD1
:1049B0000A4C5422200000F03DF80B4B6365A365C0
:1049C000E36523666366A366E36623676367A3679D
:1049D000E3672362E361E5E753460000D01300205C
:1049E0004C330000143D0020ED49001007B560462F
:1049F00001880A0A0230DF2AFAD1C9B2820804D338
:104A0000028840880004104300E00068014A5050CA
:104A1000039007BDD013002001480421014B184723
:104A2000E00F002011200010014B1B681847000008
:104A3000E00F0020014B5B6818470000E00F0020EA
:104A40009A4200D2885470477047C046F8B557461E
:104A5000DE464E464546E0B599460A9B07009A4613
:104A60000D9B884693460B9C9B073BD10C9B9C421D
:104A70003DD21E1B0B9415000C005E442A004B46D1
:104A8000013521002020B847B542F7D1A0460B9C44
:104A9000002C20D0454636195346321B013C185D88
:104AA00029004B46B847002CF6D12B00350098461C
:104AB0000D9B9B070FD55B46EC1A0C9BA3420AD9B2
:104AC000464698462A004B46310020200134B8471C
:104AD00001354445F6D32800F0BCBB46B246A94692
:104AE000A046F8BD16001500002CD3D1E0E7160053
:104AF000002CCFD11500EEE7F0B54F464646D6461E
:104B0000C0B584B098460EAB1B7894469946129B6C
:104B10000D9C109F119E9A0725D4002E65D1BC4292
:104B200021D201221A409246202C00D1E9E00C9AB1
:104B3000551E302202E0202C00D17BE001342A55A2
:104B4000A742F8D85246002A0DD0B4420BD20C9A94
:104B5000551E3022202C02D171E0202C2DD00134A2
:104B60002A55B442F9D1DA063CD55A052ED4002C88
:104B700028D10F9A102A00D1B6E0022A00D1BCE059
:104B800030220C9C227001244A46002A65D15A0723
:104B900000D499E02B220C9D2A55013403930C9BE1
:104BA00062460093029643460194FFF74FFF04B01C
:104BB000E0BCBA46B146A846F0BD2024DA06EDD5E1
:104BC0005A0503D4A74266D0B44264D00F9A102A83
:104BD00071D0022A57D0202CE0D022000134302599
:104BE0000C9FBD54202CD9D0CEE7012215001D40CA
:104BF000AA461A4236D04A46002A4AD10C321A42F4
:104C000047D1BC42A1D2202C91D1202E17D82024EC
:104C1000DA06C3D55A051BD4202F01D0202ED5D1BA
:104C20001F220F9D102D6FD0022DD8D162250C9F11
:104C3000BD54D0E75246002A79D0202EBDD9202479
:104C4000DA06ABD55A0503D4202FE9D0202EE7D0C1
:104C50000F9A102AA2D12024A0E72D220C9D2A55BC
:104C600001349BE7BC4200D37DE7202C00D05EE7F7
:104C7000DA06F0D55A05EED4202F62D0202EEAD1E4
:104C800034001F22CDE7202C00D187E72200013419
:104C9000CCE7013EB5E7621E012CC2D10F9A102A63
:104CA00000D06AE79A063BD558220C9C2270283A1D
:104CB0006270022468E79A060ED4202CCBD07822AA
:104CC0000C9D2A55013486E71A0700D466E7202296
:104CD0000C9D2A55013461E7202CBCD058250C9A34
:104CE00012191570013476E79A0608D558220C9CE3
:104CF000227030226270022446E76032F7E77822A1
:104D0000F5E7002A83D1B3E7A21E013C9D0603D438
:104D100078250C9FBD5460E758250C9FBD545CE777
:104D200078220C9C2270483A627002242CE7DA0642
:104D300000D433E75A058BD4202F00D044E71F223C
:104D40006FE73C001F226CE710B5002800D110BDB2
:104D500001F014FBFBE7C046F0B557464E4645460A
:104D6000DE46E0B599B08246894690460893229A7D
:104D7000239B10001900FFF740FA002800D0CDE077
:104D8000229823990122D94B5242FFF731FA002889
:104D900000D0C3E0229823990122D54B5242FFF75D
:104DA00019FA002800D0B9E02298239900220023A4
:104DB000FFF710FA002800D0F1E1229E239F802304
:104DC000269ADB001A400D92269A1A4201D1062338
:104DD00024938023269A1B011A403B009346099690
:104DE000334300D0B3E0002A00D0C2E10023002406
:104DF0000A930B94002304250993259B0024AB42BE
:104E000000D95C1B0223269A1A400C92269A134260
:104E100003D06B426B415B421C40099B002B07D0C7
:104E20000A9A0B9B30003900FFF773F906000F0058
:104E30002298239900220023FFF7CCF9002803D001
:104E4000802109067B181F00269AAA4B009601971D
:104E50001340089E0493249B03940293424633001C
:104E60004946504600F0AAF90400002D67D02020E2
:104E7000269A4946024013005A4253415B42621C43
:104E800018400A92330022004530D047099A6F1E1D
:104E9000D317D4185C40D30F9B46002501E0202D8A
:104EA00013D008AA94461F23200063440A21013529
:104EB0005E19FEF7E1FE3031317020000A21FEF765
:104EC000DBFE26000400092EE9D805230693002303
:104ED00004930A3303935B46089E029310AB0A9A2D
:104EE000009349463300504605970195FFF704FEAD
:104EF0000C9A0400002A22D04246851A259AAA421A
:104F00001DD9B04657461600220043464946202088
:104F10000135B8470134AE42F6D810E0269B424630
:104F20000493259B49460393249B50460293229B5E
:104F3000239C00930194089B00F040F9040020009A
:104F400019B0F0BCBB46B246A946A046F0BD6A4BBC
:104F500078009C46400D6044FFF760F9674A684B53
:104F6000FFF7F5F8674A684BFFF7CAF8674A3B0353
:104F70001B0B1A4304000D0009981100644B00221A
:104F8000FFF7B5F8634A644BFFF7E1F802000B0046
:104F900020002900FFF7B4F8FFF758F90990FFF750
:104FA0003DF95E4A5E4B04000D00FFF7D0F8002289
:104FB0005C4BFFF7A5F8FFF749F95B4A5B4B29000B
:104FC0000C902000FFF7C3F804000C980D00FFF7C9
:104FD00025F9574A574BFFF7BAF802000B0020009B
:104FE0002900FFF784F804000D0002000B000A946A
:104FF0000B95FFF7ACF804000D000A980B9902001E
:105000000B00FFF77DF800220E900F914A4B200015
:105010002900FFF77EF80022484BFFF771F80200E5
:105020000B0020002900FFF774F80022444BFFF723
:1050300067F802000B0020002900FFF76AF80A9ABF
:105040000B9B0D0080210400C9050020FFF74FF8DD
:1050500002000B0020002900FFF752F802000B00AD
:105060000E980F99FFF755F80022284BFFF748F8E4
:10507000344B0C9C9C46644423050022FFF767F8E0
:1050800004000D0002000B00300039000A940B955B
:10509000FFF7A0F800285DD123002A00C625099952
:1050A00063318D42AD4159466D420435002900D12E
:1050B000A3E6134363D030003900234A234BFFF7A4
:1050C0008FF8002807D0002230003900204BFFF76E
:1050D00081F8002853D1249B002B00D18DE60D9B35
:1050E0005A1E9341249AD31A249386E6FFFFEF7F3A
:1050F000FFFFEFFFFFF7FFFF01FCFFFFFB799F5072
:105100001344D33FB3C8608B288AC63F0000F03FEA
:105110000000F83F61436F63A787D23F71A379090D
:105120004F930A400000E03F1655B5BBB16B0240FB
:10513000EF39FAFE422EE63F00002C4000002440EA
:1051400000001840FF0300002D431CEBE2361A3F1D
:1051500080842E41099B0022013B09932000164BBD
:105160002900FEF7D6FF0A00010003000A910B9206
:1051700094E7002300240A930B9400230993249AB4
:10518000099B9A4214DDD31A013B24938023269A6B
:10519000DB001A4300230025269209932DE6802286
:1051A00012069446229B1E00239B63441F0006E6C2
:1051B00000232493EAE7C04600002440F0B54546AA
:1051C000DE464E465746E0B595B08B46904699462A
:1051D0001E9A1F9B0A9019001000209DFFF70DF8E2
:1051E000002800D0B0E11E981F990122C74B5242FF
:1051F000FEF7F0FF002800D037E11E981F9901222A
:10520000C34B5242FEF7F4FF002800D0A7E01E98DF
:105210001F990022BF4BFEF7EBFF002800D088E06B
:105220001E981F990022BC4BFEF7D4FF002800D027
:105230007FE01E981F9900220023FEF7CBFF002875
:1052400000D0FAE000230B938023229C229ADB00FB
:105250001C401A4200D102E1092D00D87CE106A9C8
:105260008C462C00172200233021093C6244013374
:10527000D154EF1A202B00D132E1A342F7D1002202
:10528000A44B069207931E981F99FEF7DFFF0500B7
:10529000FEF7C4FF02000B001E981F99FEF727FFC0
:1052A000069A079BFEF753FF08900991FEF7F2FF5D
:1052B0000600FEF7AFFF02000B0008980999FEF701
:1052C00016FF0022954B08900991FEF791FF0028E8
:1052D00000D1D2E001363000FEF79CFF069A079B12
:1052E000FEF77EFF002801D000260135AA46002FD8
:1052F00000D098E02800FEF791FF02000B001E98F6
:105300001F99FEF7F4FE854B002206000F00FEF702
:1053100061FF0CAB9A46002845D1002230003900CD
:105320007E4BFEF765FF00283DD1EB073BD50135ED
:1053300039E0229B42460493219B594603930A98E5
:105340001E9B1F9C0295009301944B46FFF704FDA2
:1053500015B0F0BCBB46B246A946A046F0BD229BA4
:105360005B0767D403226E4B229901920391219926
:105370000291009342464B4659460A98FFF766FB56
:10538000E6E706AA94461723280063440A2101345D
:105390001E19FEF749FC3031280031700A21FEF752
:1053A00043FC051E76D0202CEBD10323229A134018
:1053B000012B1DD1219B002B1AD00B9B002B00D061
:1053C000BBE0229A0C33134200D0B6E0219BA342EB
:1053D00000D887E006AB9C4617223023624404E0E5
:1053E0002199013413558C4259D0202CF8D1202416
:1053F000229B01940393219B02935346B9E706AA8B
:10540000944617230A216344300001341D19FEF726
:1054100033FC3031297030000A21013FFEF72CFCAB
:10542000092E46D90600202CE9D155460CAB202484
:105430009A46B8E704223B4B96E71E9A1F9B002032
:105440000021FEF754FE01230B938023229C229A15
:10545000DB001E901F911C401A4200D0FCE6002287
:10546000314B0627069207930DE7229B0393219B5E
:105470000293042301932D4B7BE70022089809999E
:10548000264BFEF7A7FE002800D02FE7002E4FD1B5
:1054900001362BE70323229A1340012B66D0202CE0
:1054A000A6D00B9B002B1FD02D2352461355013441
:1054B0009EE75546202CB9D030233A19002F08D04A
:1054C000172006A9013409180B55202CAED09442A0
:1054D000F6D10CAB9A462E2352461355013462E79F
:1054E0002024CCE6202C83D0229B5B0708D4229B6F
:1054F0001B0700D47CE7202352461355013477E77D
:105500002B2352461355013472E7C046FFFFEFFFCD
:10551000FFFFEF7F65CDCD4165CDCDC10000E03F00
:10552000209D0010189D001080842E41289D0010A1
:10553000F30700D4DAE60136D8E6219B013B21933C
:10554000A34200D946E7AAE7229B0393219B02933B
:1055500003230193074B0CE7074BEA009B185C6899
:105560001B682F000693079400248CE6219B002BD8
:1055700095D022E7249D001060A30010F0B5574697
:10558000DE464E464546E0B5A5B01F002E9B91462F
:105590000D93CA4ACA4B82468B461A60002900D135
:1055A00029E2002338789846002800D12BE2C54B29
:1055B00044460C93C44B55464E460E930AE0631C7A
:1055C0009846220033005946A847444638780028B8
:1055D00000D187E001372528F1D108239A46043B02
:1055E0009946023B9846013B00229C460B94387832
:1055F000791C0300203BDBB2102B03D80C9C9B00D2
:10560000E3589F460300303B0B9C0B92092B3AD981
:10561000002398462A2800D1DDE000239A462E2850
:105620004BD00300683BDBB2122B1ED80E9A9B00B6
:10563000D3589F4663460F001A43D8E743460F00EE
:105640001A43D4E74B460F001A43D0E710230F004C
:105650001A43CCE753460F001A43C8E780235B0088
:105660000B9A78781A430B9201310F0067284FD8B4
:105670002428A4D90300253BDBB2422B9FD89349B1
:105680009B00CB589F46002398460B9B47469C4661
:1056900000E00131BB00DB195B001F180878303FC8
:1056A0000300303B092BF4D963460B930023B84623
:1056B0009A460F0001312E28B3D180200B9AC000EA
:1056C00002430B9230225242944678780B00844475
:1056D0006246092A00D8AAE12A2800D1B9E10F00C0
:1056E00001319EE7A046AA46B146C84503D301232F
:1056F0005B424B4498464B46424659460020D047B1
:10570000200025B0F0BCBB46B246A946A046F0BD7D
:1057100001006939C9B20F2900D950E701238B4034
:105720009C466B4B994663464A4613400F9362462C
:105730004B461A4200D068E10A2956D0072900D00A
:105740003DE70D9B02CB9846002900D092E10B9BD0
:1057500010211A008A43100011310843814680202D
:105760001A00C0000240110003421CD114AB9C4639
:105770001F220F2362440D959C4615000F9B0B942E
:1057800002E0202B0CD0110064460C402000373082
:10579000092C00D807380133E8540A090F29F0D83A
:1057A0000B9C0D9D0F934B46082206935346059282
:1057B00008320392002204930F9B029201931CABC8
:1057C00022000093594633002800FFF795F943461D
:1057D00004000D93FAE60D9B04CB9046002A79DB7A
:1057E00078780D930F00013117E70D9B02CB1493CE
:1057F0000B789C4618005346002B00D134E100285A
:1058000015D05346013B013399460D940B9C8944B6
:105810004A460B00A14601E0934203D05C78013375
:10582000002CF9D14A465B1A0D9C0B920F938023F2
:10583000DB0099460B9A13400D934B461A4204D055
:105840000F9B534501D953460F93022399460B9A58
:1058500013400B934B46134200D1F5E16346002BF6
:1058600000D1D6E10D9B002B00D182E10B1BD1466C
:1058700031009A463B00A1442E005F464D4622006F
:105880009B46894609E04B463900541CB0475346B5
:10589000185D002800D192E122009542F3D14B46D9
:1058A0005A46A946BB46350017001E004C460B9BC6
:1058B000002B00D0ADE1149B0D9387E67D550010C1
:1058C00008380020C4A1001008A2001054A2001043
:1058D000419000000B9A283802430B9242465242F4
:1058E000787890460F000D93013196E678786C2811
:1058F00000D15DE180230B9A5B001A430B920131CA
:10590000B3E680239B00ABE67878682800D148E1B5
:1059100080230B9A01311A430B92A6E6672800D127
:10592000B2E0472800D11AE1452800D11CE10B9ACA
:105930000721049242460D9B0392073352468B4344
:10594000190002920CC92800009201930D912200C7
:1059500033005946FFF700FA040037E6462800D125
:105960008DE00B9A0721049242460D9B0392073368
:1059700052468B43190002920CC9280000920193F1
:105980000D91220033005946FFF718FC04001DE674
:10599000631C98462200330059462520A8474446F8
:1059A00014E60D9B04330F93631C99460B9B9A07D7
:1059B00000D40AE10D9B2200187859463300A8470D
:1059C00043464444012B00D86FE1B0462E00250029
:1059D0004C46B9465F462200434601343900202038
:1059E000B047AC42F7D12C00BB4635004F46464687
:1059F0000F9B0D93EAE5D64B38789A4600239846DC
:105A0000002800D0D3E500246FE66F2842D000D8EC
:105A1000FDE11023782800D19BE00B9A9A430B926A
:105A20000A239C46002314930A330F9338E0574609
:105A30000B9AB900C919490001330F181878303F83
:105A4000010030390929F4D9BA460B921F00591CBC
:105A5000E7E50D9BB87804CB0237D143C9170A405C
:105A600092460D93791CDCE5002800D1DFE6022385
:105A70005B42C8E621200B9A0243914676E620233A
:105A80000B9A1A430B926CE780230B9A1B011A4363
:105A90000B924CE708239C460023149308330F9382
:105AA0000B9880230200DB001A401100020018420C
:105AB00000D080E00C239A431000802302009B005A
:105AC0001A400B92184200D0F1E0802302005B00E4
:105AD0001A4091460D9A04321492184200D0C3E243
